:1000000002308A00B52A0000FF00030E8301A10020
:100010000A08A0008A010408A2007708A300780853
:10002000A4007908A5007A08A60003170D08031399
:10003000A70003170F080313A80003170C080313E6
:10004000A90003170E080313AA00831383128B1E43
:100050002B280B1950288B1D2F280B1853282208EA
:1000600084002308F7002408F8002508F900260872
:10007000FA00270803178D000313280803178F00C1
:100080000313290803178C0003132A0803178E0093
:10009000031320088A00210E8300FF0E7F0E090043
:1000A0008A110A1256288A110A126A28AC0A2C08E8
:1000B0000A3C031D6428AC012D0B62281030AD00F2
:1000C0002E1064280130AD022B0881000B118A111B
:1000D0000A122F28AE10061AAE142E11861A2E15EB
:1000E000AE11061BAE152E12861B2E16AE1C8028D6
:1000F0002E1D8028AE1D80282E1E8028B601881057
:10010000AE1885280330B60088142E198A280430CA
:10011000B6008814AE198F280230B60088142E1A43
:1001200094280130B60088140B108A110A122F2867
:100130000C0049274717A026C521412AD227CE24E3
:10014000C3200A00D3244E10C121C3244F272010FE
:10015000201020100001532A412954102010201093
:100160002010201020100001D322CC22432A20107E
:10017000201020102010201000014129D224C2207C
:1001800020102010201020102010000141214125B6
:100190004F102010201020102010201000012D2CB6
:1001A0006136F430201000012D2CED32E434611062
:1001B00000012D2CE230EA30201000012D2C5F27A9
:1001C0004F10201000012B2CE230EA3020100001EB
:1001D0002B2CED32E434611000012B2C6136F4300D
:1001E00020100001AD2C6136F4302000AD2CED3232
:1001F000E4346100AD2CE230EA302000AD2C5F2702
:100200004F102000AB2CE230EA302000AB2CED3256
:10021000E4346100AB2C6136F43020003C308400C3
:1002200083130008031922290130F800F701F70BA6
:100230001729F80B16294A30F700F70B1D2920293A
:10024000800B1429080042182729081228290816AB
:10025000831608128312C2182F2988123029881693
:100260008316881283124219372908133829081770
:10027000831608138312C2193F298813402988174F
:100280008316881300008312091483160910482965
:10029000831209108316091083120800C301831604
:1002A000081600308312081A0130C304831688161A
:1002B00000308312881A0130F7000310F70D770819
:1002C000C3048316081700308312081B0130F7009F
:1002D000F70DF70DFC30F7057708C3048316881770
:1002E00000308312881B0130F700F70DF70DF70D72
:1002F000F830F7057708C3044308F80008008316B0
:1003000009108910091183128910831689100816A3
:10031000881608178817831209158316091100001B
:100320008312091483160910000083124E217808E5
:10033000C2000910831609100000831209148316E5
:100340000910000083124E217808C100091083169D
:10035000091008128812081388138312420EF7003E
:10036000F030F70577084104F8007808C100C11F94
:10037000BB2983168729BF08031DC0298910C129FD
:10038000891483168910000083120911831609113C
:10039000000083120910831609108312400EC10059
:1003A0000F30C1054108C200232140080F39C100A8
:1003B000C200232108002830B8000C30B9000130F9
:1003C000BA000630BB000910831609108312891089
:1003D00083168910831209118316091108128812D5
:1003E000081388130910891009110F308312BC00FB
:1003F0000E210130B7003708033C031C072A0330E5
:10040000C20023210530BC000E21B70AFB290230AF
:10041000C20023210530BC000E21B7013708033C80
:10042000031C1E2A38303707840083130008BC00E1
:10043000BF013C08C0007F21B70A0E2A8A110A12A8
:10044000FE2A3C0B242A272A4030BD00282ABD0161
:1004500001303B02BD073D088038BE00BF013E08A9
:10046000C0007F2108003A08073A0319412A0B3AD5
:100470000319462A063A03194E2A023A0319542A46
:10048000592A0130BB00BC0021225E2ABF01013085
:10049000C0007F210230BC000E215E2A0130BB006B
:1004A0000230BC0021225E2ABF011030C0007F2133
:1004B0005E2A0130BF003A08C0007F2108000B0807
:1004C000B7008B13831603178C170C140000000061
:1004D00083120313B71B8B1703170C087F390319FB
:1004E000B32A0313B70003170D080313B80003174B
:1004F0000F080313B9003708BA003322380803176E
:100500008D000313390803178F0003130B08BA007B
:100510008B13831603178C170C1400000000831232
:100520000313BA1B8B1703170C0D0E0D7F3903191C
:10053000B32A0313B70003170D080313B8000317FA
:100540000F080313B9003708BA003322380803171D
:100550008D000313390803178F008D0A03198F0AC2
:1005600003135F2A03170313080003081F398300CE
:10057000193083169900A6309800903083129800A5
:100580003D30AB00AC011030AD002E10B001AF011A
:10059000B201B101B301B401B501AE142E15AE150F
:1005A0002E16B60183161F149F141F159F110730B6
:1005B0009C008313FF308500860080308700003068
:1005C000880009108910091181130108C039073802
:1005D000810083122B08810083161F109F101F15A6
:1005E0009F111F1383121F179F1783169F178312C4
:1005F0001F148B168B15C0308B04DB290814881050
:1006000036080C1E012B99003230BC000E212D083B
:10061000103C031D152B2E18152B983003178D0039
:1006200000308F0003135F222E142D08BB00013011
:10063000BC002122993003178D0000308F00031376
:100640005F220130BB000230BC0021220030F800E4
:100650001F08C73978049F000630F700F70B2E2BD0
:1006600000001F151F19322B83161E088312AF00BE
:100670001E08B0000830F8001F08C73978049F0032
:100680000630F700F70B422B00001F151F19462BF1
:1006900083161E088312B1001E08B2003008003C09
:1006A0000318672BFF3A031D592B2F08DF3C031853
:1006B000672B3008023C031C672B031D632B2F089C
:1006C000203C031C672BB3012830B500EA2BB0088F
:1006D000031D732B2F08AA3C031C732BFD30B300A2
:1006E0000A30B500EA2BB008031D7A2B2F08AA3C6C
:1006F0000318892B3008013C031C892B031D842B14
:100700002F08543C031C892BFE30B3001430B50075
:10071000EA2B3008003C0318A32BFF3A031D942B4F
:100720002F08543C0318A32B3008013C031CA32BB7
:10073000031D9E2B2F08DF3C031CA32BFF30B300AF
:100740001E30B500EA2B3008013C0318BD2BFF3AE0
:10075000031DAE2B2F08203C0318BD2B3008023C94
:10076000031CBD2B031DB82B2F08AB3C031CBD2B5A
:100770000130B3003230B500EA2B3008013C0318D9
:10078000D72BFF3A031DC82B2F08AB3C0318D72BE0
:100790003008033C031CD72B031DD22B2F08553CDC
:1007A000031CD72B0230B3003C30B500EA2B3008D5
:1007B000023C0318EA2BFF3A031DE22B2F08553C9D
:1007C0000318EA2B3008033C031CEA2B0330B30068
:1007D0004630B5003208003C0318032CFF3A031DD5
:1007E000F52B3108DF3C0318032C3208023C031CB4
:1007F000032C031DFF2B3108203C031C032CB401E8
:100800000430B507862CB208031D0F2C3108AA3C12
:10081000031C0F2CFD30B4000130B507862CB20844
:10082000031D162C3108AA3C0318252C3208013C64
:10083000031C252C031D202C3108543C031C252CA3
:10084000FE30B4000230B507862C3208003C031895
:100850003F2CFF3A031D302C3108543C03183F2C29
:100860003208013C031C3F2C031D3A2C3108DF3CAD
:10087000031C3F2CFF30B4000330B507862C320830
:10088000013C0318592CFF3A031D4A2C3108203C27
:100890000318592C3208023C031C592C031D542CFC
:1008A0003108AB3C031C592C0130B4000530B507AE
:1008B000862C3208013C0318732CFF3A031D642C6C
:1008C0003108AB3C0318732C3208033C031C732C17
:1008D000031D6E2C3108553C031C732C0230B400F0
:1008E0000630B507862C3208023C0318862CFF3AE6
:1008F000031D7E2C3108553C0318862C3208033C1E
:10090000031C862C0330B4000730B507B308031D61
:10091000942CB408031D942CAE1C942C2E1D942CE6
:10092000AE1D942C2E1AB601B308031D9A2CB408E0
:100930000319A42CAE1CA42C2E1DA42CAE1DA42C7B
:100940002E1EA42C0530B6003608FA3E0318AA2D38
:10095000063EAC2DA23003178D0000308F0003132C
:100960005F22B60136080C1EB32C99003230BC0051
:100970000E21AA2DAB3003178D0000308F0003131A
:100980005F220130B60036080C1EC42C99003230AC
:10099000BC000E21AA2DB43003178D0000308F004B
:1009A00003135F220230B60036080C1ED52C9900C6
:1009B0003230BC000E21AA2DBD3003178D0000304F
:1009C0008F0003135F220330B60036080C1EE62C9E
:1009D00099003230BC000E21AA2DC63003178D00BD
:1009E00000308F0003135F220430B60036080C1E5F
:1009F000F72C99003230BC000E21AA2D3508B60024
:100A00000130BB000230BC0021223308FD3C031D35
:100A1000112DCF3003178D0000308F0003135F229C
:100A2000552D3308FE3C031D1D2DD43003178D00BA
:100A300000308F0003135F22552D3308FF3C031D48
:100A4000292DD93003178D0000308F0003135F224A
:100A5000552DB308031D342DDE3003178D000030F3
:100A60008F0003135F22552D330B3E2DE330031708
:100A70008D0000308F0003135F22552D3308023C98
:100A8000031D4A2DE83003178D0000308F0003133B
:100A90005F22552D3308033C031D552DED30031700
:100AA0008D0000308F0003135F220930BB0002303D
:100AB000BC0021223408FD3C031D662DF2300317D3
:100AC0008D0000308F0003135F22AA2D3408FE3CF6
:100AD000031D722DF63003178D0000308F000313B5
:100AE0005F22AA2D3408FF3C031D7E2DFA30031728
:100AF0008D0000308F0003135F22AA2DB408031D60
:100B0000892DFE3003178D0000308F0003135F2204
:100B1000AA2D340B932D023003178D0001308F0066
:100B200003135F22AA2D3408023C031D9F2D0630BB
:100B300003178D0001308F0003135F22AA2D3408A4
:100B4000033C031DAA2D0A3003178D0001308F00CE
:100B500003135F22002B63000A148A100A15820710
:0C0B6000AA2CBA2CCB2CDC2CED2CFE2C8B
:02400E00313F40
:00000001FF
;PIC16F877A
;CRC=5587  CREATED="22-Oct.-20 13:34"
